S01900004C6967687453656E736F725377697463682E7372656327
S113000019C033C032C031C030C02FC02EC02DC083
S11300102CC02BC02AC029C028C027C026C025C098
S113002024C023C022C021C020C01FC01EC01DC0C8
S11300301CC01BC011241FBECFEFD2E0DEBFCDBF5A
S113004011E0A0E0B1E0EEE6F4E002C005900D920C
S1130050A631B107D9F721E0A6E1B1E001C01D92B4
S1130060AE31B207E1F737D000C2CACF86E084B917
S113007008950F931F93299A161617061806190642
S11300806CF400E010E0980100000F5F1F4F2F4F49
S11300903F4F0617170728073907B1F729981F910B
S11300A00F9108950F931F932A9A16161706180690
S11300B019066CF400E010E0980100000F5F1F4F78
S11300C02F4F3F4F0617170728073907B1F72A980C
S11300D01F910F910895CADF11D081E027D060EA03
S11300E076E881E090E0C5DF60EA76E881E090E0C0
S11300F0D9DF60E070E081E04DD0FBCF83E48093F2
S11301007C00EAE7F0E08081806880830895EAE774
S1130110F0E0808180648083808186FDFDCF8091C2
S113012078002091790090E0922B0895CF93C82F06
S11301308FEF8C0F833060F5A0911701CA1741F13E
S1130140AA2381F0B0E0AA0FBB1FAA0FBB1FAA0FFE
S1130150BB1FAA5FBE4F1496ED91FC91159788E1E1
S113016091E009958091170180931601C0931701BE
S1130170EC2FF0E0EE0FFF1FEE0FFF1FEE0FFF1F3F
S1130180EA5FFE4F0280F381E02D88E191E009955A
S1130190CF910895E0911701EE2381F0F0E0EE0F86
S11301A0FF1FEE0FFF1FEE0FFF1FEA5FFE4F0680DB
S11301B0F781E02DAB0168E171E009950895CF93D3
S11301C0DF93EC0181E090E029D099838883FC01DE
S11301D01082DF91CF910895FC0180819181009775
S11301E009F0B4D008958130C1F491DF8032934096
S11301F030F460EA76E881E090E054DF05C060EA1C
S113020076E881E090E035DF8FE39DE023E08150E4
S113021090402040E1F700C000000895CF93DF93A1
S11302208230910510F482E090E0E0911C01F0919D
S11302301D0120E030E0A0E0B0E0309739F14081CA
S1130240518148175907B8F04817590771F482814A
S11302509381109729F013969C938E9312972CC038
S113026090931D0180931C0127C02115310531F0A5
S11302704217530718F0A901DB0101C0EF019A01ED
S1130280BD01DF010280F381E02DD7CF21153105B7
S1130290F9F0281B390B2430310580F48A819B81C5
S11302A06115710521F0FB019383828304C090934F
S11302B01D0180931C01FE01329644C0FE01E20F31
S11302C0F31F8193919322503109398328833AC0D3
S11302D020911A0130911B01232B41F4209102013A
S11302E03091030130931B0120931A0120910001E6
S11302F0309101012115310541F42DB73EB74091EC
S1130300040150910501241B350BE0911A01F09171
S11303101B01E217F307A0F42E1B3F0B2817390724
S113032078F0AC014E5F5F4F2417350748F04E0F4D
S11303305F1F50931B0140931A018193919302C054
S1130340E0E0F0E0CF01DF91CF910895CF93DF9308
S1130350009709F487C0FC01329713821282C0917E
S11303601C01D0911D01209781F420813181280F37
S1130370391F80911A0190911B018217930779F517
S1130380F0931B01E0931A016DC0DE0120E030E020
S1130390AE17BF0750F412964D915C9113979D01CF
S11303A04115510509F1DA01F3CFB383A2834081EA
S11303B05181840F951F8A179B0771F48D919C912D
S11303C01197840F951F02969183808312968D91C5
S11303D09C911397938382832115310529F4F0931B
S11303E01D01E0931C013EC0D9011396FC93EE93CA
S11303F012974D915D91A40FB51FEA17FB0779F48D
S113040080819181840F951F0296D90111969C9346
S11304108E938281938113969C938E931297E0E03E
S1130420F0E08A819B81009719F0FE01EC01F9CF7D
S1130430CE01029628813981820F931F20911A01DF
S113044030911B012817390769F4309729F4109269
S11304501D0110921C0102C013821282D0931B0151
S1110460C0931A01DF91CF910895F894FFCF55
S113046E00001E012000000000000000000001003A
S109047EDF00EC00F300B6
S9030000FC
