:100000002BC045C044C043C042C041C05FC03FC0D8
:100010003EC03DC03CC03BC03AC039C038C037C00C
:1000200036C035C034C033C032C031C030C02FC03C
:100030002EC02DC037C155C155C14DC13CC153C1A2
:1000400038C131C12AC16EC18CC18CC184C173C198
:1000500070C189C168C161C111241FBECFEFD2E058
:10006000DEBFCDBF11E0A0E0B1E0E4EAF8E002C0FD
:1000700005900D92A032B107D9F711E0A0E2B1E0EE
:1000800001C01D92AF32B107E1F702D009C4B8CF69
:1000900040D080E480937C00B5D281E065D168EEE9
:1000A00073E080E090E041D068EE73E080E090E0A3
:1000B00062D07894E0D1A0D04DD2882321F060E0C6
:1000C00070E088D1F9CF81D14FD1F4CF1F920F9238
:1000D0000FB60F9211242F933F934F935F936F931B
:1000E0007F938F939F93AF93BF93EF93FF9392D19F
:1000F000FF91EF91BF91AF919F918F917F916F9100
:100100005F914F913F912F910F900FBE0F901F90D5
:10011000189586E084B908958130910511F4299AE3
:100120000895892B09F429980895CF92DF92EF92D0
:10013000FF926B017C0181E090E0EEDF80E090E0D7
:10014000DC018C159D05AE05BF052CF40000019661
:10015000A11DB11DF6CF80E090E0FF90EF90DF9001
:10016000CF90DACF8130910511F42A9A0895892B26
:1001700009F42A980895CF92DF92EF92FF926B01D3
:100180007C0181E090E0EEDF80E090E0DC018C1506
:100190009D05AE05BF052CF400000196A11DB11D03
:1001A000F6CF80E090E0FF90EF90DF90CF90DACF35
:1001B00080917A00806880937A0080917C008360CF
:1001C00080937C0080917C00837F80937C00809171
:1001D0007A00806480937A0080917A0086FDFCCF5B
:1001E000809178002091790090917A009F77909388
:1001F0007A0090E0922B0895DBDF2091000122230A
:1002000019F02130C1F008958235934090F080912B
:1002100020018F5F8093200180912001883039F484
:100220001092200181E08093000186E017C088E0F1
:1002300015C089E015C08132934088F48091200177
:100240008F5F8093200180912001883031F41092DB
:1002500020011092000187E001C089E05BC188E0C5
:1002600059D1109220010895D5D0C6D083B7817F8F
:10027000846083BF83B7816083BF889583B78E7F97
:1002800083BF0895C8C1089590E0FC013197E9301B
:10029000F10548F5E65EFF4F099462E370E080E007
:1002A00090E069DFE1CF62E370E080E090E03DDF65
:1002B000F9CF82E087C068EE73E080E090E035DF40
:1002C00068EE73E080E090E030DF68EE73E080E09D
:1002D00090E02BDFA6C168EE73E080E090E04BDF9A
:1002E000A6C1ABC1B0C1089595D086D083B7817F38
:1002F000846083BF83B7816083BF889583B78E7F17
:1003000083BF089582C187C190E0FC013197E93035
:10031000F10548F5ED5DFF4F099462E370E080E080
:1003200090E029DFE1CF62E370E080E090E0FDDE65
:10033000F9CF81E047C068EE73E080E090E0F5DE41
:1003400068EE73E080E090E0F0DE68EE73E080E05D
:1003500090E0EBDE66C168EE73E080E090E00BDFDA
:1003600066C16BC170C10895CF93C82F8FEF8C0FFA
:10037000823030F5A0912301CA1711F1AA2369F048
:1003800088E0A89FD0011124AF5FBE4F1496ED9175
:10039000FC91159784E291E0099580912301809367
:1003A0002101C093230188E0C89FF0011124EF5F71
:1003B000FE4F0280F381E02D84E291E0CF91099419
:1003C000CF91089580932201089580912201109287
:1003D00022010895AB01E0912301EE2361F098E042
:1003E000E99FF0011124EF5FFE4F0680F781E02DB9
:1003F00064E271E009940895F89484B7877F84BF1C
:10040000A895E0E6F0E080818861808389EF8083B1
:1004100078940895F894A89584B7877F84BFE0E620
:10042000F0E08081886180831082789408958091C3
:100430007A00806880937A0080917C00826080934B
:100440007C0080917C00827F80937C0080917A0088
:10045000806480937A0080917A0086FDFCCF809141
:1004600078002091790090917A009F7790937A009C
:1004700090E0922B0895DBDF20911901213021F0CB
:10048000D8F02230D1F108958F3A21E0920770F42C
:10049000809126018F5F809326018091260185300F
:1004A000C1F5109226011092190125C01092260163
:1004B000833F934038F40895833F23E0920730F060
:1004C0001092260182E08093190121C08C3E914058
:1004D00080F0809126018F5F809326018091260114
:1004E0008530B9F41092260181E08093190183E0F0
:1004F0000FC01092260182E00BC0823F934038F477
:100500001092260181E08093190184E001C085E00A
:1005100001C00895CF93C82F83E090E09AD0DC010A
:10052000E0912701F0912801CC9312961C921E9223
:100530001197309729F4909328018093270108C0E0
:1005400081819281009711F0FC01FACFB283A183DF
:10055000CF910895CF93E0912701F0912801309732
:1005600059F0C081218132813093280120932701E5
:10057000CF0107D18C2F01C080E0CF9108958091E9
:1005800029018130C1F080E090E05D9A20E030E008
:100590002817390709F45D982F5F3F4F211544E074
:1005A0003407B1F70196811524E0920771F75D9A3F
:1005B00081E0809329010895809129018823A1F089
:1005C00080E094E05D9A20E030E02817390709F4D4
:1005D0005D982F5F3F4F211544E03407B1F7019735
:1005E000009781F710922901089580912A0181FDD9
:1005F000C6CF80912A0180FDDFCF80912A0182FF42
:10060000FBCFF6CF559A5D98089580912A018460BA
:1006100080932A01EACF80912A018B7F80932A015F
:10062000E4CF80912A01826080932A01DECF8091FD
:100630002A018D7F80932A01D8CF80912A01816081
:1006400080932A01D2CF80912A018E7F80932A0144
:10065000CCCFCF93DF938230910510F482E090E00D
:10066000E0912D01F0912E0120E030E0A0E0B0E01B
:10067000309739F14081518148175907B8F0481730
:10068000590771F482819381109729F013969C93F6
:100690008E9312972CC090932E0180932D0127C02A
:1006A0002115310531F04217530718F0A901DB017C
:1006B00001C0EF019A01BD01DF010280F381E02D4D
:1006C000D7CF21153105F9F0281B390B243031051E
:1006D00080F48A819B816115710521F0FB01938370
:1006E000828304C090932E0180932D01FE013296E7
:1006F00044C0FE01E20FF31F819391932250310910
:10070000398328833AC020912B0130912C01232B6F
:1007100041F420911C0130911D0130932C01209354
:100720002B0120911A0130911B012115310541F453
:100730002DB73EB740911E0150911F01241B350B70
:10074000E0912B01F0912C01E217F307A0F42E1B8E
:100750003F0B2817390778F0AC014E5F5F4F241725
:10076000350748F04E0F5F1F50932C0140932B012B
:100770008193919302C0E0E0F0E0CF01DF91CF914F
:100780000895CF93DF93009709F487C0FC01329757
:1007900013821282C0912D01D0912E01209781F4F5
:1007A00020813181280F391F80912B0190912C01DC
:1007B0008217930779F5F0932C01E0932B016DC01C
:1007C000DE0120E030E0AE17BF0750F412964D91E5
:1007D0005C9113979D014115510509F1DA01F3CFA1
:1007E000B383A28340815181840F951F8A179B0791
:1007F00071F48D919C911197840F951F02969183AE
:10080000808312968D919C911397938382832115F7
:10081000310529F4F0932E01E0932D013EC0D9015A
:100820001396FC93EE9312974D915D91A40FB51F13
:10083000EA17FB0779F480819181840F951F029656
:10084000D90111969C938E938281938113969C93E8
:100850008E931297E0E0F0E08A819B81009719F077
:10086000FE01EC01F9CFCE01029628813981820F79
:10087000931F20912B0130912C012817390769F41F
:10088000309729F410922E0110922D0102C013828C
:100890001282D0932C01C0932B01DF91CF91089548
:0408A000F894FFCFFA
:1008A4000100000000000000000100420143014477
:1008B4000102008201830184010100002F01200054
:00000001FF
