:1000000019C033C032C031C030C02FC07CC02DC039
:100010002CC02BC02AC029C028C027C026C025C09C
:1000200024C023C022C021C020C01FC01EC01DC0CC
:100030001CC01BC011241FBECFEFD2E0DEBFCDBF5E
:1000400011E0A0E0B1E0E0EDF5E002C005900D9216
:10005000AE31B107D9F721E0AEE1B1E001C01D92A8
:10006000A732B207E1F737D0B1C2CACF86E084B970
:1000700008950F931F93299A161617061806190646
:100080006CF400E010E0980100000F5F1F4F2F4F4D
:100090003F4F0617170728073907B1F729981F910F
:1000A0000F9108950F931F932A9A16161706180694
:1000B00019066CF400E010E0980100000F5F1F4F7C
:1000C0002F4F3F4F0617170728073907B1F72A9810
:1000D0001F910F910895559A5D98C8DF37D081E040
:1000E00050D068EE73E080E090E0C3DF68EE73E02C
:1000F00080E090E0D7DF789460E070E081E07DD030
:1001000077D03FD0F9CF1F920F920FB60F921124E4
:100110002F933F934F935F936F937F938F939F930F
:10012000AF93BF93EF93FF931DD1FF91EF91BF91D9
:10013000AF919F918F917F916F915F914F913F917F
:100140002F910F900FBE0F901F90189583E480930E
:100150007C00EAE7F0E08081806880830895EAE728
:10016000F0E0808180648083808186FDFDCF809176
:1001700078002091790090E0922B089580E293E03E
:100180000895CF93C82F8FEF8C0F833060F5A09127
:100190002001CA1741F1AA2381F0B0E0AA0FBB1FCA
:1001A000AA0FBB1FAA0FBB1FAA5FBE4F1496ED91EB
:1001B000FC91159781E291E009958091200180934F
:1001C0001E01C0932001EC2FF0E0EE0FFF1FEE0F99
:1001D000FF1FEE0FFF1FEA5FFE4F0280F381E02D4D
:1001E00081E291E00995CF91089580931F010895D0
:1001F00080911F0110921F010895E0912001EE23CC
:1002000081F0F0E0EE0FFF1FEE0FFF1FEE0FFF1F5C
:10021000EA5FFE4F0680F781E02DAB0161E271E0FD
:1002200009950895CF93DF93EC0181E090E0A7D08A
:1002300099838883FC0110825D98DF91CF910895A6
:10024000FC0180819181009709F031D108950F93CD
:100250001F93CF93DF93FB01C081D181813031F5B2
:100260007EDF8C018BDF0817190768F462E370E00A
:1002700080E090E017DF88818F5F8883893048F0C5
:1002800082E0B3DF06C062E370E080E090E0F1DE80
:10029000188268D059D083B7817F846083BF83B7C9
:1002A000816083BF889583B78E7F83BFDF91CF91B5
:1002B0001F910F910895CF93DF93EC0181E090E0BF
:1002C0005ED099838883FC0110825D9ADF91CF9183
:1002D0000895FC0180819181009709F0E8D008958C
:1002E0000F931F93CF93DF93FB01C081D1818130A6
:1002F00031F535DF8C0142DF0817190738F462E366
:1003000070E080E090E0CEDE18820CC062E370E026
:1003100080E090E0AEDE88818F5F8883893010F0C6
:1003200081E063DF1FD010D083B7817F846083BFFB
:1003300083B7816083BF889583B78E7F83BFDF914A
:10034000CF911F910F910895F89484B7877F84BF50
:10035000A895E0E6F0E080818861808389EF808362
:1003600078940895F894A89584B7877F84BFE0E6D1
:10037000F0E0808188618083108278940895CF9323
:10038000DF938230910510F482E090E0E091250146
:10039000F091260120E030E0A0E0B0E0309739F1A4
:1003A0004081518148175907B8F04817590771F42F
:1003B00082819381109729F013969C938E931297C4
:1003C0002CC0909326018093250127C0211531056B
:1003D00031F04217530718F0A901DB0101C0EF010A
:1003E0009A01BD01DF010280F381E02DD7CF2115F5
:1003F0003105F9F0281B390B2430310580F48A814E
:100400009B816115710521F0FB019383828304C0F8
:100410009093260180932501FE01329644C0FE018F
:10042000E20FF31F8193919322503109398328837E
:100430003AC02091230130912401232B41F42091D3
:100440000201309103013093240120932301209174
:100450000001309101012115310541F42DB73EB75E
:100460004091040150910501241B350BE0912301BB
:10047000F0912401E217F307A0F42E1B3F0B28177D
:10048000390778F0AC014E5F5F4F2417350748F00D
:100490004E0F5F1F5093240140932301819391934A
:1004A00002C0E0E0F0E0CF01DF91CF910895CF935B
:1004B000DF93009709F487C0FC0132971382128200
:1004C000C0912501D0912601209781F420813181AE
:1004D000280F391F809123019091240182179307DF
:1004E00079F5F0932401E09323016DC0DE0120E053
:1004F00030E0AE17BF0750F412964D915C91139700
:100500009D014115510509F1DA01F3CFB383A283AF
:1005100040815181840F951F8A179B0771F48D913B
:100520009C911197840F951F029691838083129658
:100530008D919C911397938382832115310529F422
:10054000F0932601E09325013EC0D9011396FC9358
:10055000EE9312974D915D91A40FB51FEA17FB071B
:1005600079F480819181840F951F0296D9011196AB
:100570009C938E938281938113969C938E93129772
:10058000E0E0F0E08A819B81009719F0FE01EC0128
:10059000F9CFCE01029628813981820F931F2091D5
:1005A0002301309124012817390769F4309729F481
:1005B000109226011092250102C013821282D0935C
:1005C0002401C0932301DF91CF910895F894FFCFC8
:1005D00000002701200000000000000000000100D2
:0E05E00012012001270102005B016901700178
:00000001FF
